{
  "address": "0x5FbDB2315678afecb367f032d93F642f64180aa3",
  "abi": [
    {
      "inputs": [],
      "stateMutability": "nonpayable",
      "type": "constructor"
    },
    {
      "stateMutability": "payable",
      "type": "fallback"
    },
    {
      "inputs": [],
      "name": "fund",
      "outputs": [],
      "stateMutability": "payable",
      "type": "function"
    },
    {
      "inputs": [
        {
          "internalType": "address",
          "name": "",
          "type": "address"
        }
      ],
      "name": "getAmountPaid",
      "outputs": [
        {
          "internalType": "uint256",
          "name": "",
          "type": "uint256"
        }
      ],
      "stateMutability": "view",
      "type": "function"
    },
    {
      "inputs": [
        {
          "internalType": "uint256",
          "name": "",
          "type": "uint256"
        }
      ],
      "name": "listOfFunders",
      "outputs": [
        {
          "internalType": "address",
          "name": "",
          "type": "address"
        }
      ],
      "stateMutability": "view",
      "type": "function"
    },
    {
      "inputs": [],
      "name": "minimumEth",
      "outputs": [
        {
          "internalType": "uint256",
          "name": "",
          "type": "uint256"
        }
      ],
      "stateMutability": "view",
      "type": "function"
    },
    {
      "inputs": [],
      "name": "ownerAddress",
      "outputs": [
        {
          "internalType": "address",
          "name": "",
          "type": "address"
        }
      ],
      "stateMutability": "view",
      "type": "function"
    },
    {
      "inputs": [],
      "name": "withdraw",
      "outputs": [],
      "stateMutability": "nonpayable",
      "type": "function"
    },
    {
      "stateMutability": "payable",
      "type": "receive"
    }
  ],
  "transactionHash": "0xc2415ae71e380678a0d873bb6f4adc07b55c647a04a04eb324e5ee3beadc3448",
  "args": [],
  "numDeployments": 1,
  "solcInputHash": "02489d770278c399cc95777de8df13e6",
  "bytecode": "0x6080604052600a60015534801561001557600080fd5b50336000806101000a81548173ffffffffffffffffffffffffffffffffffffffff021916908373ffffffffffffffffffffffffffffffffffffffff160217905550610962806100656000396000f3fe6080604052600436106100595760003560e01c806331fb1266146100725780633ccfd60b1461009d57806344d13bb7146100b45780638f84aa09146100f15780639a9787401461011c578063b60d42881461015957610068565b3661006857610066610163565b005b610070610163565b005b34801561007e57600080fd5b50610087610251565b6040516100949190610813565b60405180910390f35b3480156100a957600080fd5b506100b2610257565b005b3480156100c057600080fd5b506100db60048036038101906100d69190610639565b6104ed565b6040516100e89190610813565b60405180910390f35b3480156100fd57600080fd5b50610106610505565b6040516101139190610798565b60405180910390f35b34801561012857600080fd5b50610143600480360381019061013e9190610662565b610529565b6040516101509190610798565b60405180910390f35b610161610163565b005b6001543410156101a8576040517f08c379a000000000000000000000000000000000000000000000000000000000815260040161019f906107f3565b60405180910390fd5b6002339080600181540180825580915050600190039060005260206000200160009091909190916101000a81548173ffffffffffffffffffffffffffffffffffffffff021916908373ffffffffffffffffffffffffffffffffffffffff16021790555034600360003373ffffffffffffffffffffffffffffffffffffffff1673ffffffffffffffffffffffffffffffffffffffff16815260200190815260200160002081905550565b60015481565b60008054906101000a900473ffffffffffffffffffffffffffffffffffffffff1673ffffffffffffffffffffffffffffffffffffffff163373ffffffffffffffffffffffffffffffffffffffff16146102e5576040517f08c379a00000000000000000000000000000000000000000000000000000000081526004016102dc906107d3565b60405180910390fd5b60003373ffffffffffffffffffffffffffffffffffffffff164760405161030b90610783565b60006040518083038185875af1925050503d8060008114610348576040519150601f19603f3d011682016040523d82523d6000602084013e61034d565b606091505b5050905080610391576040517f08c379a0000000000000000000000000000000000000000000000000000000008152600401610388906107b3565b60405180910390fd5b60005b600280549050811015610463576000600282815481106103dd577f4e487b7100000000000000000000000000000000000000000000000000000000600052603260045260246000fd5b9060005260206000200160009054906101000a900473ffffffffffffffffffffffffffffffffffffffff1690506000600360008373ffffffffffffffffffffffffffffffffffffffff1673ffffffffffffffffffffffffffffffffffffffff1681526020019081526020016000208190555050808061045b90610886565b915050610394565b50600067ffffffffffffffff8111156104a5577f4e487b7100000000000000000000000000000000000000000000000000000000600052604160045260246000fd5b6040519080825280602002602001820160405280156104d35781602001602082028036833780820191505090505b50600290805190602001906104e9929190610568565b5050565b60036020528060005260406000206000915090505481565b60008054906101000a900473ffffffffffffffffffffffffffffffffffffffff1681565b6002818154811061053957600080fd5b906000526020600020016000915054906101000a900473ffffffffffffffffffffffffffffffffffffffff1681565b8280548282559060005260206000209081019282156105e1579160200282015b828111156105e05782518260006101000a81548173ffffffffffffffffffffffffffffffffffffffff021916908373ffffffffffffffffffffffffffffffffffffffff16021790555091602001919060010190610588565b5b5090506105ee91906105f2565b5090565b5b8082111561060b5760008160009055506001016105f3565b5090565b60008135905061061e816108fe565b92915050565b60008135905061063381610915565b92915050565b60006020828403121561064b57600080fd5b60006106598482850161060f565b91505092915050565b60006020828403121561067457600080fd5b600061068284828501610624565b91505092915050565b6106948161084a565b82525050565b60006106a7601983610839565b91507f5769746864726177616c204e6f74205375636365737366756c000000000000006000830152602082019050919050565b60006106e7600983610839565b91507f4e6f74204f776e657200000000000000000000000000000000000000000000006000830152602082019050919050565b600061072760008361082e565b9150600082019050919050565b6000610741601383610839565b91507f53656e64203120657468206174206c65617374000000000000000000000000006000830152602082019050919050565b61077d8161087c565b82525050565b600061078e8261071a565b9150819050919050565b60006020820190506107ad600083018461068b565b92915050565b600060208201905081810360008301526107cc8161069a565b9050919050565b600060208201905081810360008301526107ec816106da565b9050919050565b6000602082019050818103600083015261080c81610734565b9050919050565b60006020820190506108286000830184610774565b92915050565b600081905092915050565b600082825260208201905092915050565b60006108558261085c565b9050919050565b600073ffffffffffffffffffffffffffffffffffffffff82169050919050565b6000819050919050565b60006108918261087c565b91507fffffffffffffffffffffffffffffffffffffffffffffffffffffffffffffffff8214156108c4576108c36108cf565b5b600182019050919050565b7f4e487b7100000000000000000000000000000000000000000000000000000000600052601160045260246000fd5b6109078161084a565b811461091257600080fd5b50565b61091e8161087c565b811461092957600080fd5b5056fea264697066735822122032c8e68d0014fac1abb8b6ac47b16ffee06b414336356c03db784c180b0dbe0764736f6c63430008000033",
  "devdoc": {
    "kind": "dev",
    "methods": {},
    "version": 1
  },
  "userdoc": {
    "kind": "user",
    "methods": {},
    "version": 1
  },
  "storageLayout": {
    "storage": [
      {
        "astId": 3,
        "contract": "contracts/crowdContract.sol:CrowdFund",
        "label": "ownerAddress",
        "offset": 0,
        "slot": "0",
        "type": "t_address"
      },
      {
        "astId": 6,
        "contract": "contracts/crowdContract.sol:CrowdFund",
        "label": "minimumEth",
        "offset": 0,
        "slot": "1",
        "type": "t_uint256"
      },
      {
        "astId": 9,
        "contract": "contracts/crowdContract.sol:CrowdFund",
        "label": "listOfFunders",
        "offset": 0,
        "slot": "2",
        "type": "t_array(t_address)dyn_storage"
      },
      {
        "astId": 13,
        "contract": "contracts/crowdContract.sol:CrowdFund",
        "label": "getAmountPaid",
        "offset": 0,
        "slot": "3",
        "type": "t_mapping(t_address,t_uint256)"
      }
    ],
    "types": {
      "t_address": {
        "encoding": "inplace",
        "label": "address",
        "numberOfBytes": "20"
      },
      "t_array(t_address)dyn_storage": {
        "base": "t_address",
        "encoding": "dynamic_array",
        "label": "address[]",
        "numberOfBytes": "32"
      },
      "t_mapping(t_address,t_uint256)": {
        "encoding": "mapping",
        "key": "t_address",
        "label": "mapping(address => uint256)",
        "numberOfBytes": "32",
        "value": "t_uint256"
      },
      "t_uint256": {
        "encoding": "inplace",
        "label": "uint256",
        "numberOfBytes": "32"
      }
    }
  }
}